{
  "contractName": "Storage",
  "abi": [
    {
      "anonymous": false,
      "inputs": [
        {
          "indexed": false,
          "internalType": "uint256",
          "name": "position",
          "type": "uint256"
        }
      ],
      "name": "AddedNewNumber",
      "type": "event"
    },
    {
      "constant": false,
      "inputs": [
        {
          "internalType": "uint256",
          "name": "newNumber",
          "type": "uint256"
        }
      ],
      "name": "addNumber",
      "outputs": [
        {
          "internalType": "uint256",
          "name": "",
          "type": "uint256"
        }
      ],
      "payable": false,
      "stateMutability": "nonpayable",
      "type": "function"
    },
    {
      "constant": true,
      "inputs": [
        {
          "internalType": "uint256",
          "name": "position",
          "type": "uint256"
        }
      ],
      "name": "getNumber",
      "outputs": [
        {
          "internalType": "uint256",
          "name": "",
          "type": "uint256"
        }
      ],
      "payable": false,
      "stateMutability": "view",
      "type": "function"
    }
  ],
  "bytecode": "0x608060405234801561001057600080fd5b50610149806100206000396000f3fe608060405234801561001057600080fd5b50600436106100365760003560e01c8063fc5636581461003b578063fce680231461006a575b600080fd5b6100586004803603602081101561005157600080fd5b5035610087565b60408051918252519081900360200190f35b6100586004803603602081101561008057600080fd5b50356100a7565b600080828154811061009557fe5b90600052602060002001549050919050565b600080546001810182558180527f290decd9548b62a8d60345a988386fc84ba6bc95484008f6362f93160ef3e5630182905580546040805182815290517f197006a61de03a2f3b4de7f4c4fab6e30ebedef7c1a42d716b2140f184c718b79181900360200190a19291505056fea265627a7a72315820ff0eba26192837a41ff58ccda0498121be0bb28c2fa66fbc5f2169184689635264736f6c63430005100032",
  "source": "// SPDX-License-Identifier: MIT\npragma solidity >=0.4.22 <0.8.0;\n\ncontract Storage {\n    uint[] private _numberStorage;\n\n    event AddedNewNumber(uint position);\n\n    function addNumber(uint newNumber) public returns (uint) {\n        _numberStorage.push(newNumber);\n\n        uint numberPosition = _numberStorage.length;\n\n        emit AddedNewNumber(numberPosition);\n        return numberPosition;\n    }\n\n    function getNumber(uint position) public view returns (uint) {\n        return _numberStorage[position];\n    }\n}\n",
  "sourcePath": "/Users/keitaro.chino/work/eth-todo-list/contracts/Storage.sol",
  "compiler": {
    "name": "solc",
    "version": "0.5.16+commit.9c3226ce.Emscripten.clang"
  },
  "schemaVersion": "3.2.2",
  "updatedAt": "2020-09-02T09:33:07.172Z",
  "networkType": "ethereum",
  "devdoc": {
    "methods": {}
  },
  "userdoc": {
    "methods": {}
  }
}