{
  "contractName": "ToDoList",
  "abi": [
    {
      "constant": false,
      "inputs": [],
      "name": "addTaskCount",
      "outputs": [],
      "payable": false,
      "stateMutability": "nonpayable",
      "type": "function"
    },
    {
      "constant": true,
      "inputs": [],
      "name": "get",
      "outputs": [
        {
          "internalType": "uint256",
          "name": "",
          "type": "uint256"
        }
      ],
      "payable": false,
      "stateMutability": "view",
      "type": "function"
    }
  ],
  "bytecode": "0x608060405260008055348015601357600080fd5b50609d806100226000396000f3fe6080604052348015600f57600080fd5b506004361060325760003560e01c80636d4ce63c14603757806381cd6edb14604f575b600080fd5b603d6057565b60408051918252519081900360200190f35b6055605d565b005b60005490565b60008054600101905556fea265627a7a723158207aaf11923d491a33a693c2a59cb9e159604f081920fb3467f32fbb59df1b9b3f64736f6c63430005100032",
  "source": "// SPDX-License-Identifier: MIT\npragma solidity >=0.4.22 <0.8.0;\n\ncontract ToDoList {\n    uint taskCount = 0;\n\n    function addTaskCount() public {\n        taskCount += 1;\n    }\n\n    function get() public view returns (uint) {\n        return taskCount;\n    }\n}\n",
  "sourcePath": "/Users/keitaro.chino/work/eth-todo-list/contracts/ToDoList.sol",
  "compiler": {
    "name": "solc",
    "version": "0.5.16+commit.9c3226ce.Emscripten.clang"
  },
  "schemaVersion": "3.2.2",
  "updatedAt": "2020-09-02T09:33:06.890Z",
  "networkType": "ethereum",
  "devdoc": {
    "methods": {}
  },
  "userdoc": {
    "methods": {}
  }
}